:100000000C942A000C943F000C943F000C943F0089
:100010000C943F000C943F000C943F000C943F0064
:100020000C943F000C943F000C943F000C943F0054
:100030000C943F000C943F000C943F000C943F0044
:100040000C943F000C943F000C943F000C943F0034
:100050000C943F0011241FBECFE5D8E0DEBFCDBF1A
:1000600010E0A0E6B0E0E4E1F4E002C005900D92FB
:10007000A636B107D9F70E9441000C9408020C94EF
:1000800000000E94DF0083E30E94590080E690E0B8
:100090000E9486010E945C008130E1F70E946800A6
:1000A000C82F84E80E946F008C2F90E00E94990175
:1000B000F1CF880F82B9089584EC86BF06B607FE9B
:1000C000FDCF81B1803611F481E0089580E008957C
:1000D00084EC86BF06B607FEFDCF83B1089592B3C8
:1000E000977F92BB882324F492B3906892BB03C09D
:1000F00092B39F7792BB86FF04C092B3906492BB89
:1001000003C092B39F7B92BB85FF04C092B3906201
:1001100092BB03C092B39F7D92BB84FF04C092B395
:10012000906192BB03C092B39F7E92BB92B39460E6
:1001300092BBE7EBFBE03197F1F700C0000092B310
:100140009B7F92BBE7EBFBE03197F1F700C000002B
:1001500083FF04C092B3906892BB03C092B39F77B1
:1001600092BB82FF04C092B3906492BB03C092B36F
:100170009F7B92BB81FF04C092B3906292BB03C08D
:1001800092B39F7D92BB80FF04C082B3806182BB2B
:1001900003C082B38F7E82BB82B3846082BB87EB55
:1001A0009BE00197F1F700C0000082B38B7F82BB18
:1001B000E7EBFBE03197F1F700C00000089581B351
:1001C0008C6F81BB83E00E946F008FED9EE20197F0
:1001D000F1F700C0000083E00E946F008FED9EE207
:1001E0000197F1F700C0000083E00E946F008FEDDF
:1001F0009EE20197F1F700C0000082E00E946F00CC
:1002000088E20E946F0088E00E946F0081E00E94F7
:100210006F0086E00E946F008CE00E946F008FE507
:100220009AEE0197F1F700C00000089592B398602C
:1002300092BB882324F492B3906892BB03C092B31C
:100240009F7792BB86FF04C092B3906492BB03C0B9
:1002500092B39F7B92BB85FF04C092B3906292BB26
:1002600003C092B39F7D92BB84FF04C092B39061A0
:1002700092BB03C092B39F7E92BB92B3946092BB39
:10028000E7EBFBE03197F1F700C0000092B39B7FF2
:1002900092BBE7EBFBE03197F1F700C0000083FF72
:1002A00004C092B3906892BB03C092B39F7792BB95
:1002B00082FF04C092B3906492BB03C092B39F7B51
:1002C00092BB81FF04C092B3906292BB03C092B311
:1002D0009F7D92BB80FF04C082B3806182BB03C05C
:1002E00082B38F7E82BB82B3846082BB87EB9BE04C
:1002F0000197F1F700C0000082B38B7F82BBE7EB70
:10030000FBE03197F1F700C0000008950F931F93B1
:10031000CF938C01C0E003C00E941601CF5FF801AB
:10032000EC0FF11D80818111F7CFCF911F910F91BB
:1003300008951F93CF93DF93CDB7DEB72A970FB6FB
:10034000F894DEBF0FBECDBFAC01892BA1F580E3D1
:100350000E94160144C09A01ADECBCEC0E94F90168
:100360009695879596958795969587959C01220FEA
:10037000331F880F991F880F991F880F991F820FAD
:10038000931F9A01281B390BC901E1E0F0E0EC0F43
:10039000FD1FE10FF11D17FDFA95805D80839A0125
:1003A0000E94F901AC01569547955695479556958B
:1003B00047951F5F01C010E04115510561F61150CE
:1003C0000CC0E1E0F0E0EC0FFD1FE10FF11D17FDA7
:1003D000FA9580810E9416011150112394F72A96F4
:1003E0000FB6F894DEBF0FBECDBFDF91CF911F9146
:1003F0000895A29FB001B39FC001A39F700D811DFE
:100400001124911DB29F700D811D1124911D08951D
:04041000F894FFCF8E
:060414006F64643D00006E
:00000001FF
